{
  "contractName": "MinterRole",
  "abi": [
    {
      "inputs": [],
      "stateMutability": "nonpayable",
      "type": "constructor"
    },
    {
      "anonymous": false,
      "inputs": [
        {
          "indexed": true,
          "internalType": "address",
          "name": "account",
          "type": "address"
        }
      ],
      "name": "MinterAdded",
      "type": "event"
    },
    {
      "anonymous": false,
      "inputs": [
        {
          "indexed": true,
          "internalType": "address",
          "name": "account",
          "type": "address"
        }
      ],
      "name": "MinterRemoved",
      "type": "event"
    },
    {
      "inputs": [
        {
          "internalType": "address",
          "name": "account",
          "type": "address"
        }
      ],
      "name": "isMinter",
      "outputs": [
        {
          "internalType": "bool",
          "name": "",
          "type": "bool"
        }
      ],
      "stateMutability": "view",
      "type": "function"
    },
    {
      "inputs": [
        {
          "internalType": "address",
          "name": "account",
          "type": "address"
        }
      ],
      "name": "addMinter",
      "outputs": [],
      "stateMutability": "nonpayable",
      "type": "function"
    },
    {
      "inputs": [],
      "name": "renounceMinter",
      "outputs": [],
      "stateMutability": "nonpayable",
      "type": "function"
    }
  ],
  "bytecode": "0x608060405234801561001057600080fd5b5061002d61002261003260201b60201c565b61003a60201b60201c565b61031d565b600033905090565b61005281600061009860201b6101261790919060201c565b8073ffffffffffffffffffffffffffffffffffffffff167f6ae172837ea30b801fbfcdd4108aa1d5bf8ff775444fd70256b44e6bf3dfc3f660405160405180910390a250565b6100a8828261014660201b60201c565b156100e8576040517f08c379a00000000000000000000000000000000000000000000000000000000081526004016100df90610254565b60405180910390fd5b60018260000160008373ffffffffffffffffffffffffffffffffffffffff1673ffffffffffffffffffffffffffffffffffffffff16815260200190815260200160002060006101000a81548160ff0219169083151502179055505050565b60008073ffffffffffffffffffffffffffffffffffffffff168273ffffffffffffffffffffffffffffffffffffffff1614156101b7576040517f08c379a00000000000000000000000000000000000000000000000000000000081526004016101ae90610274565b60405180910390fd5b8260000160008373ffffffffffffffffffffffffffffffffffffffff1673ffffffffffffffffffffffffffffffffffffffff16815260200190815260200160002060009054906101000a900460ff16905092915050565b600061021b601f83610294565b9150610226826102a5565b602082019050919050565b600061023e602283610294565b9150610249826102ce565b604082019050919050565b6000602082019050818103600083015261026d8161020e565b9050919050565b6000602082019050818103600083015261028d81610231565b9050919050565b600082825260208201905092915050565b7f526f6c65733a206163636f756e7420616c72656164792068617320726f6c6500600082015250565b7f526f6c65733a206163636f756e7420697320746865207a65726f20616464726560008201527f7373000000000000000000000000000000000000000000000000000000000000602082015250565b61071f8061032c6000396000f3fe608060405234801561001057600080fd5b50600436106100415760003560e01c8063983b2d56146100465780639865027514610062578063aa271e1a1461006c575b600080fd5b610060600480360381019061005b919061040e565b61009c565b005b61006a6100f7565b005b6100866004803603810190610081919061040e565b610109565b60405161009391906104d2565b60405180910390f35b6100ac6100a76101ce565b610109565b6100eb576040517f08c379a00000000000000000000000000000000000000000000000000000000081526004016100e29061050d565b60405180910390fd5b6100f4816101d6565b50565b6101076101026101ce565b610230565b565b600061011f82600061028a90919063ffffffff16565b9050919050565b610130828261028a565b15610170576040517f08c379a0000000000000000000000000000000000000000000000000000000008152600401610167906104ed565b60405180910390fd5b60018260000160008373ffffffffffffffffffffffffffffffffffffffff1673ffffffffffffffffffffffffffffffffffffffff16815260200190815260200160002060006101000a81548160ff0219169083151502179055505050565b600033905090565b6101ea81600061012690919063ffffffff16565b8073ffffffffffffffffffffffffffffffffffffffff167f6ae172837ea30b801fbfcdd4108aa1d5bf8ff775444fd70256b44e6bf3dfc3f660405160405180910390a250565b61024481600061035290919063ffffffff16565b8073ffffffffffffffffffffffffffffffffffffffff167fe94479a9f7e1952cc78f2d6baab678adc1b772d936c6583def489e524cb6669260405160405180910390a250565b60008073ffffffffffffffffffffffffffffffffffffffff168273ffffffffffffffffffffffffffffffffffffffff1614156102fb576040517f08c379a00000000000000000000000000000000000000000000000000000000081526004016102f29061054d565b60405180910390fd5b8260000160008373ffffffffffffffffffffffffffffffffffffffff1673ffffffffffffffffffffffffffffffffffffffff16815260200190815260200160002060009054906101000a900460ff16905092915050565b61035c828261028a565b61039b576040517f08c379a00000000000000000000000000000000000000000000000000000000081526004016103929061052d565b60405180910390fd5b60008260000160008373ffffffffffffffffffffffffffffffffffffffff1673ffffffffffffffffffffffffffffffffffffffff16815260200190815260200160002060006101000a81548160ff0219169083151502179055505050565b600081359050610408816106d2565b92915050565b60006020828403121561042057600080fd5b600061042e848285016103f9565b91505092915050565b61044081610590565b82525050565b6000610453601f8361056d565b915061045e826105bc565b602082019050919050565b600061047660308361056d565b9150610481826105e5565b604082019050919050565b600061049960218361056d565b91506104a482610634565b604082019050919050565b60006104bc60228361056d565b91506104c782610683565b604082019050919050565b60006020820190506104e76000830184610437565b92915050565b6000602082019050818103600083015261050681610446565b9050919050565b6000602082019050818103600083015261052681610469565b9050919050565b600060208201905081810360008301526105468161048c565b9050919050565b60006020820190508181036000830152610566816104af565b9050919050565b600082825260208201905092915050565b60006105898261059c565b9050919050565b60008115159050919050565b600073ffffffffffffffffffffffffffffffffffffffff82169050919050565b7f526f6c65733a206163636f756e7420616c72656164792068617320726f6c6500600082015250565b7f4d696e746572526f6c653a2063616c6c657220646f6573206e6f74206861766560008201527f20746865204d696e74657220726f6c6500000000000000000000000000000000602082015250565b7f526f6c65733a206163636f756e7420646f6573206e6f74206861766520726f6c60008201527f6500000000000000000000000000000000000000000000000000000000000000602082015250565b7f526f6c65733a206163636f756e7420697320746865207a65726f20616464726560008201527f7373000000000000000000000000000000000000000000000000000000000000602082015250565b6106db8161057e565b81146106e657600080fd5b5056fea26469706673582212200003d481bd87fc0a6f00a8735bd1e1c01fc35b8d3c0dcaac6df10ec72bf015fc64736f6c63430008040033",
  "immutableReferences": {},
  "source": "pragma solidity ^0.8.4;\r\n\r\nimport \"@openzeppelin/contracts/utils/Context.sol\";\r\nimport \"./Roles.sol\";\r\n\r\ncontract MinterRole is Context {\r\n    using Roles for Roles.Role;\r\n\r\n    event MinterAdded(address indexed account);\r\n    event MinterRemoved(address indexed account);\r\n\r\n    Roles.Role private _minters;\r\n\r\n    constructor () {\r\n        _addMinter(_msgSender());\r\n    }\r\n\r\n    modifier onlyMinter() {\r\n        require(isMinter(_msgSender()), \"MinterRole: caller does not have the Minter role\");\r\n        _;\r\n    }\r\n\r\n    function isMinter(address account) public view returns (bool) {\r\n        return _minters.has(account);\r\n    }\r\n\r\n    function addMinter(address account) public onlyMinter {\r\n        _addMinter(account);\r\n    }\r\n\r\n    function renounceMinter() public {\r\n        _removeMinter(_msgSender());\r\n    }\r\n\r\n    function _addMinter(address account) internal {\r\n        _minters.add(account);\r\n        emit MinterAdded(account);\r\n    }\r\n\r\n    function _removeMinter(address account) internal {\r\n        _minters.remove(account);\r\n        emit MinterRemoved(account);\r\n    }\r\n}",
  "sourcePath": "E:/Documents/OneDrive/Documents/solidity/crowd-sale/contracts/MinterRole.sol",
  "compiler": {
    "name": "solc",
    "version": "0.8.4+commit.c7e474f2.Emscripten.clang"
  },
  "schemaVersion": "3.4.1",
  "updatedAt": "2021-07-27T13:07:27.086Z",
  "devdoc": {
    "kind": "dev",
    "methods": {},
    "version": 1
  },
  "userdoc": {
    "kind": "user",
    "methods": {},
    "version": 1
  }
}